:020000040800F2
:100000007004002001010008210400081D040008FC
:100010001F04000849010008990C000800000000B6
:100020000000000000000000000000008907000838
:100030004B01000800000000D5040008A5080008D6
:100040001B0100081B0100081B0100081B01000820
:100050001B010008A50600081B0100081B01000881
:100060001B0100081B0100081B0100081B01000800
:100070001B0100081B0100081B0100081B010008F0
:100080001B0100081B0100081B0100081B010008E0
:100090001B0100081B0100081B0100081B010008D0
:1000A0001B0100081B0100081B0100081B010008C0
:1000B0001B0100081B0100081B0100081B010008B0
:1000C0001B0100081B0100081B0100081B010008A0
:1000D0001B0100081B0100081B0100081B01000890
:1000E0001B0100081B0100081B010008DFF80CD0F1
:1000F00000F018F800480047B90C00087004002010
:100100000648804706480047FEE7FEE7FEE7FEE7B1
:10011000FEE7FEE7FEE7FEE7FEE7FEE7A9080008C8
:10012000ED000008064C074D06E0E06840F00103D2
:1001300094E8070098471034AC42F6D3FFF7DAFF93
:10014000580D0008780D0008FEE7704704490A685A
:1001500022F010020A600A6802430A607047000039
:1001600000200240034A116801F038010143116088
:10017000704700000020024070B5094CCC200325D8
:1001800020801820E070A5702146064800F052F843
:1001900025802146BDE87040034800F04BB80000C0
:1001A0002800002000080140000C0140194A1A49AB
:1001B000904203D18869C0F380007047174A90428B
:1001C00003D18869C0F3C0007047154A904203D13B
:1001D0008869C0F300107047124A904203D18869C1
:1001E000C0F340107047104A904203D18869C0F3B1
:1001F000801070470D4A904203D18869C0F3C01047
:1002000070470B4A904203D18869C0F300207047C1
:10021000002070470008014000100240000C01401F
:10022000001001400014014000180140001C014072
:1002300000200140F0B5CA78002502F00F03D20675
:1002400001D58A7813430A784FF00F0E12F0FF0F92
:100250004FF001021CD004680F8802FA05F63740FF
:10026000B74211D14FEA850C0EFA0CF724EA0707C2
:1002700003FA0CF43C43CF78282F02D0482F02D049
:1002800002E0466100E006616D1C082DE4D30460C5
:100290000C88FF2C1ED944685FF0000606F10807A1
:1002A00002FA07F50F882F40AF420FD14FEA860CB4
:1002B0000EFA0CF7BC4303FA0CF73C43CF78282F17
:1002C00000D14561CF78482F00D10561761C082EFA
:1002D000E4D34460F0BDF0B51F4616460D46044613
:1002E0000F2901D90020F0BDFFF760FF18B90121E7
:1002F000204600F021F86FB90120A840022E02D05C
:10030000032E03D006E0E168814302E0E1680226A3
:100310000143E160082D01D3241D083D2168A80098
:100320000F2282409143216047EA86018140206884
:10033000014321600120F0BDF0B5304A304B314C13
:10034000314D324E324FDFF8CCC0DFF8CCE051B344
:10035000704503D1906940F0040004E0984204D154
:10036000906940F008009061F0BDA04203D190690F
:1003700040F01000F7E7A84203D1906940F0200058
:10038000F1E7B04203D1906940F04000EBE7B8429A
:1003900003D1906940F08000E5E76045E4D19069C1
:1003A00040F48070DFE7704503D1906920F00400CD
:1003B000D9E7984203D1906920F00800D3E7A04222
:1003C00003D1906920F01000CDE7A84203D19069D5
:1003D00020F02000C7E7B04203D1906920F0400030
:1003E000C1E7B84203D1906920F08000BBE76045C7
:1003F000BAD1906920F48070B5E700000010024087
:10040000000C0140001001400014014000180140A0
:10041000001C01400020014000080140FEE7FEE70B
:1004200010B5802000F008F9002810D04FF480307B
:1004300000F01EF90121082000F056F901211020DA
:1004400000F052F9BDE81040802000F05DB810BD0A
:1004500008B505208DF8000000208DF801008DF80A
:10046000020001208DF80300684600F001F808BD85
:1004700070B50F23C47801780122F4B1144C2468BC
:10048000457804F4E064C4F5E064240AC4F1040689
:10049000E3408478B5401C402C4301F1E021230166
:1004A00081F80034007800F01F018A404009800084
:1004B00000F1E020C0F8002170BD01F01F00824073
:1004C0004809800000F1E020C0F8802170BD0000E4
:1004D0000CED00E070470000044A0029D16901D00A
:1004E000014300E08143D1617047000000100240E9
:1004F000044A0029916901D0014300E081439161E0
:1005000070470000001002400149887270470000E7
:10051000001002400149C8647047000000004242D8
:1005200010B501210720FFF7D7FF0121BDE81040DA
:100530001D20FFF7DDBF00000C48016841F00101FC
:10054000016041680A4A114041600168094A11404E
:100550000160016821F480210160416821F4FE01FD
:1005600041604FF41F01816070470000001002409D
:100570000000FFF8FFFFF6FE30B51F494A6812F091
:100580000C031E4A03D0042B01D0082B21D002609B
:100590004A680F231A4C03EA1212A35C0268DA407D
:1005A00042604B68072505EA1323E35C22FA03F354
:1005B00083604B6805EAD323E35CDA40C260496894
:1005C000032303EA9131231F595CB2FBF1F101616E
:1005D00030BD4A684B6802F470124FF0020413F405
:1005E000803F04EB924202D04B689B0301D5054B40
:1005F00000E0024B5A43CAE70010024000127A00A2
:100600000500002000093D00024600205309094969
:10061000012B0BD0022B0BD0D1F8241002F01F02BB
:10062000012393400B4200D0012070470968F5E791
:10063000096AF3E700100240034A0146002092686D
:100640000A4200D001207047001002400248406872
:1006500000F00C007047000000100240034A51688F
:1006600021F0F0010143516070470000001002408A
:100670000B490A6822F480320A600A6822F4802258
:100680000A60B0F5803F07D0B0F5802F03D108682D
:1006900040F4A02008607047086840F48030F9E713
:1006A0000010024010B50820FFF7C6FF48B108202F
:1006B000FFF72AFF3120FFF7A7FF10B1012000F05C
:1006C00033F81020FFF7B8FF00280CD01020FFF7F8
:1006D0001BFF3920FFF798FF002804D0BDE8104029
:1006E000022000F031B810BD044A0029517A01D02F
:1006F000014300E081435172704700000010024046
:10070000034A516821F4E0610143516070470000E1
:100710000010024003494A6822F4605242EAC000D5
:1007200048607047001002400149086670470000A9
:1007300000004242034A5368084323F47C131843E1
:100740005060704700100240034A516821F00301D5
:1007500001435160704700000010024018B50020AE
:100760004FF4A06400903120FFF74EFF0099491C20
:100770000091A14201D00028F5D03120FFF744FFBD
:10078000002800D0012018BD7047000010B5FFF709
:10079000D3FE4FF480342046FFF76AFFFFF7DEFFF9
:1007A00015490128087000D0FEE71020FFF7CEFCA5
:1007B0000220FFF7D7FC0020FFF750FF0020FFF7D3
:1007C000A9FF4FF48060FFF79BFF4FF4E011204634
:1007D000FFF7B0FF0120FFF7A7FF3920FFF714FF55
:1007E0000028FAD00220FFF7AFFF00BFFFF72EFF6F
:1007F0000828FBD110BD0000000000200CB500212E
:10080000264801910091026842F4803202604FF460
:10081000A063026802F400320092019A521C019215
:10082000009A12B9019A9A42F3D10268920333D521
:10083000012100911A490A6842F010020A600A6810
:1008400022F003020A600A6842F002020A6041686C
:10085000416041684160416841F4806141604168A4
:1008600021F47C114160416841F4E8114160016864
:1008700041F08071016001688901FCD5416821F077
:1008800003014160416841F0020141604168C1F3E8
:1008900081010229FAD10CBD00910CBD001002406B
:1008A0000020024000F0EEB90F4810B5016841F099
:1008B0000101016041680D4A1140416001680C4A24
:1008C00011400160016821F480210160416821F438
:1008D000FE0141604FF41F018160FFF78FFF054962
:1008E0004FF00060086010BD001002400000FFF8EB
:1008F000FFFFF6FE08ED00E00029018802D041F07C
:10090000800101E021F08001018070470029018809
:1009100002D041F0010101E021F0010101807047A6
:1009200030B5028C22F001020284028C8388048B91
:1009300022F0020224F073050C882C430D89154324
:100940004A882A43114DA8420BD0114DA84208D025
:10095000104DA84205D0104DA84202D00F4DA8421C
:100960000DD122F008054A8923F440732A4322F06E
:1009700004058A882A438D891D43CB892B438380B4
:100980000483C9888186028430BD0000002C0140A8
:100990000034014000400140004401400048014053
:1009A000028B22F008020A430283704770B5028C62
:1009B00022F010020284028C8488038B0D8823F4B9
:1009C000E6464FF6FF7303EA052535430E8922F00C
:1009D000200203EA061616434A8803EA021232434B
:1009E000104EB04202D0104EB04215D122F0800617
:1009F0004A8924F4406403EA0212324322F040069A
:100A00008A8803EA021232438E8903EA8606264365
:100A1000CC8903EA8404344384800583C988018730
:100A2000028470BD002C014000340140028B4FF65F
:100A3000FF7322F4006203EA01211143018370472E
:100A400070B5028C22F480720284028C8488838BBD
:100A50000D8823F073031D4322F400730E894FF6B3
:100A6000FF7202EA06261E434B8802EA0323334341
:100A7000104EB04202D0104EB04215D123F40066A1
:100A80004B8924F4405402EA0323334323F4806661
:100A90008B8802EA032333438E8902EA0616264333
:100AA000CC8902EA0414344384808583C988818711
:100AB000038470BD002C014000340140828B22F081
:100AC00008020A438283704770B5028C22F4805278
:100AD0000284048C8288838B0D8823F4E6464FF6CB
:100AE000FF7303EA0525354324F400560C8903EA15
:100AF000043434434E8803EA06362643094CA042A8
:100B000002D0094CA04205D122F480448A8903EA2C
:100B10008212224382808583C988A0F8401006840F
:100B200070BD0000002C014000340140828B4FF664
:100B3000FF7322F4006203EA0121114381837047AD
:100B400030B502881B4B1C4C98420DD0A0420BD0F4
:100B5000B0F1804F08D0194DA84205D0184DA842D9
:100B600002D0184DA84203D122F070054A882A43CA
:100B7000154DA84206D0154DA84203D022F4407569
:100B8000CA882A4302808A8882850A880285984218
:100B90000AD0A04208D00E4A904205D00D4A904299
:100BA00002D00D4A904201D1097A01860121818249
:100BB00030BD0000002C0140003401400004004022
:100BC00000080040000C00400010004000140040ED
:100BD0000040014000440140004801402DE9F0413F
:100BE000254E26480025358140F2AF4181800580A1
:100BF000C580DFF88C80458001464046FFF7A0FFA6
:100C00001E4C60200A340127208067803088E080F5
:100C1000258121464046FFF783FE08214046FFF725
:100C2000BFFE67807088E08021464046FFF7BEFE29
:100C300008214046FFF7FAFE6780B088E080214631
:100C40004046FFF7FDFE08214046FFF737FF67806B
:100C5000F088E08021464046FFF736FF08214046F5
:100C6000FFF764FF01214046FFF746FE4046BDE81E
:100C7000F0410121FFF74ABE180000205400002077
:100C8000000400400348C168002902D0C168491E21
:100C9000C160704718000020FEE702E008C8121F7C
:100CA00008C1002AFAD170477047002001E001C155
:100CB000121F002AFBD17047FFF768FD2248FFF79B
:100CC0005BFC0120FFF726FCFFF7C2FB1F484FF437
:100CD0007A7101250068B0FBF1F0B0F1807F2CD271
:100CE00020F07F414FF0E020491E4161184AF02179
:100CF00082F8141D0021816107210161FFF710FCBA
:100D0000FFF73AFAFFF76AFF124C0022032311465D
:100D10002046FFF7E0FA0323002201212046FFF7D7
:100D2000DAFA0323002202212046FFF7D4FA2561D4
:100D3000022020610420206100E0FEE70220401C28
:100D40000A28FCDBFAE70000400000202C0000200D
:100D50000FE000E000080140780D000800000020CE
:100D6000400000009A0C0008B80D00084000002068
:100D700030040000AA0C000800020406080000006D
:100D80000001020304010203040607080900000031
:100D90000000000000000000000000000000000053
:100DA0000000000000A24A04000000000000000053
:080DB000010203040607080913
:04000005080000ED02
:00000001FF
