:020000040800F2
:10000000A00C0020010100087F1A00081D1800083C
:100010007D1A0008890B0008A133000800000000C9
:100020000000000000000000000000005D2100084A
:100030007D13000800000000411D0008752900081C
:100040001B0100081B0100081B0100081B01000820
:100050001B010008C51F00081B0100081B01000848
:100060001B0100081B0100081B0100081B01000800
:100070001B0100081B0100081B0100081B010008F0
:100080001B0100081B0100081B0100081B010008E0
:100090007D3300081B0100081B0100081B0100083C
:1000A0001B0100081B0100081B0100081B010008C0
:1000B0001B0100081B010008F52A00081B010008AD
:1000C0001B0100081B0100081B0100081B010008A0
:1000D0001B0100081B0100081B0100081B01000890
:1000E0001B0100081B010008B1310008DFF80CD02B
:1000F00000F032FC00480047DD370008A00C00206B
:100100000648804706480047FEE7FEE7FEE7FEE7B1
:10011000FEE7FEE7FEE7FEE7FEE7FEE7BD29000893
:10012000ED000008F0B480EA0102D40F4200B2EB07
:10013000410F02D20246084611464A0042D0C30D82
:10014000DDB2C1F3C752AD1A202D35DAC1F3160165
:1001500041F4000204B15242C5F1200602FA06F150
:100160002A411044B3EBD05F23D0C4B1012DA0EBE2
:10017000C35009DCF0BC4FF0004202EAC352DBB2CC
:1001800000F5000000F00CBB400000F1807000EBB7
:10019000C350A0F1807040EAD170490009E04908DD
:1001A00041EAC071A0EBC35000F50000400800EB2D
:1001B000C350F0BC00F0EBBA6142012202EB4101F6
:1001C000001BF6E7F0BC704781F00041AAE780F021
:1001D0000040A7E780EA010210B502F000434000AA
:1001E00022D04A001FD0010E01EB1261C0F356006D
:1001F000C2F3560240F4000042F40002A0FB0220C9
:1002000000047F39140400D0401C50EA124001D48D
:100210004000491EC2B20C0604EBD010401C40083E
:10022000802A02D003E0002010BD20F00100002948
:1002300000DA0020184310BD30B480EA010202F059
:10024000004530F0004221F0004013D090B1C30DC2
:10025000D40DC2F31601C0F31600E41A41F40001F4
:1002600040F400027D34914201D3641C00E0490057
:10027000002C02DA30BC002070474FF4000000234D
:10028000914201D3891A034340084FEA4101F7D153
:1002900051B1914202D14FF0004105E002D24FF03E
:1002A000010101E06FF0010103EBC450284430BCB0
:1002B00000F06DBA420005D0C0F3C75252429142DD
:1002C00001DC0020704700EBC15070472DE9FE4F64
:1002D000804681EA0300C00F0C46009021F00041E7
:1002E00023F00045B8EB0200A94105D24046214663
:1002F00090461C460B46024623F00040104347D070
:10030000270DC7F30A00C3F30A510290401A019067
:1003100040286BDAC3F3130040F4801B0098924628
:1003200020B10023D2EB030A63EB0B0B0198594673
:10033000C0F14002504600F0F9F906460D4650461D
:100340005946019A00F011FA10EB080061410024AF
:1003500087EA115284EAE7731A4340D0009A62B3E5
:10036000019A012A4FEA075215DC001B61EB0201DA
:100370004FF0004202EA0752CDE90042001C41F56D
:10038000801132462B4600F048FA03B0BDE8F08FEA
:1003900040462146F9E7001B61EB0201001C41F5D4
:1003A000801300185B412018A2F5001747EB0301EA
:1003B00040EAD570B6196D4111E06D084FEA360676
:1003C00045EAC0754FEA0752001B61EB0201001CB1
:1003D00041F5801149084FEA300000195141324679
:1003E0002B4603B0BDE8F04F00F008BA0098012298
:1003F00040000023D0EB020263EBE073009821463B
:100400004FEAE074B8EB000061EB0401E9E783F028
:1004100000435BE781F0004158E72DE9FE4F81EA98
:10042000030404F0004421F0004100944FF0000B5D
:1004300023F0004350EA01045ED052EA03045BD08B
:10044000C3F30A54C1F30A552C44A4F2F3340194C3
:10045000A0FB0254C1F3130141F48011C3F3130351
:1004600043F4801301FB024400FB034E840A970A05
:1004700044EA815447EA8357A4FB076802958D0A32
:1004800005FB07854FEA932C04FB0C542705029DBE
:100490004FEA065847EA1637B5EB08056EEB070C2E
:1004A000870E920E47EA811742EA8312A7FB0201E8
:1004B000B6EB0B0164EB00042B0D43EA0C335E1822
:1004C00044EB1C50DA465146E7FB0201C5F3130426
:1004D0004FEA0B3343EA14534FEA0432019C43EAD8
:1004E0000603A4F10C040294009CCDE900B400F0D2
:1004F00094F903B0BDE8F08F00200146F9E72DE93B
:10050000F04D81EA030404F0004B21F0004514464D
:100510004FF0000A23F0004150EA050220D054EACF
:1005200001021DD0C5F30A570246C5F31303C1F3F8
:100530001300C1F30A5640F4801543F48013A7EB6F
:100540000608101BD64608F2FD3873EB050002D3EF
:1005500008F1010801E092185B41B8F1000F03DADD
:1005600000200146BDE8F08D00204FF480110646C2
:1005700084460EE0171B73EB050705D3121B63EBD4
:10058000050306434CEA010C49084FEA3000921873
:100590005B4150EA0107EDD152EA030012D082EA32
:1005A000040083EA0501084305D0101BAB4106D2C5
:1005B0000122002306E000224FF0004302E06FF02A
:1005C000010253101AEB06004CEB085110EB0A0025
:1005D00041EB0B01BDE8F04D00F010B9962300226D
:1005E000114600F0DDB80EB540F233410291002112
:1005F000CDE900110A460B4600F00FF903B000BD2B
:1006000020F00040C10DC0F3160040F400007F2927
:1006100001DA00207047962903DCC1F19601C84039
:100620007047963988407047C1F30A5210B5C1F33C
:10063000130140F2FF3341F480119A4201DA0020A5
:1006400010BD40F233439A42A2F2334203DC5242DD
:1006500000F07BF810BD904010BD00F0004230F07B
:1006600000400AD0C10D01F56071C0F3160042EAE6
:100670000151C208400711437047002001467047EE
:1006800030B5041E71F1000404DB4FF00044404219
:1006900064EB0101141E73F1000405DB1C464FF0EE
:1006A0000043524263EB04038B4208BF824230BDD9
:1006B00030B5041E71F1000404DB4FF000444042E9
:1006C00064EB0101141E73F1000405DB1C464FF0BE
:1006D0000043524263EB0403994208BF904230BD8D
:1006E00001F0004330B421F0004150EA010206D08D
:1006F0000A0DA2F56072C1F31301002A02DC30BCBE
:1007000000207047440F44EAC104C100E01830BC27
:1007100000EBC25000F03BB8002801DBC0F1004004
:10072000002901DBC1F1004181427047202A04DB2E
:10073000203A00FA02F1002070479140C2F12003F4
:1007400020FA03F3194390407047202A04DB203A33
:1007500021FA02F00021704721FA02F3D040C2F1E1
:1007600020029140084319467047202A06DBCB1728
:10077000203A41FA02F043EAE07306E041FA02F35C
:10078000D040C2F120029140084319467047002929
:10079000A8BF7047401C490008BF20F00100704707
:1007A00010B4B0FA80FC00FA0CF050EA010404BF67
:1007B00010BC704749B1CCF1200421FA04F411FABD
:1007C0000CF118BF012121430843A3EB0C01CB1D01
:1007D0004FEA00614FEA102042BF002010BC704772
:1007E00000EBC35010440029A4BF10BC7047401C4C
:1007F000490008BF20F0010010BC704710B5141E5E
:1008000073F1000408DA401C41F1000192185B41C9
:100810001A4301D120F0010010BD2DE9F04D9246A0
:100820009B4611B1B1FA81F202E0B0FA80F22032B7
:100830009046FFF77BFF04460F4640EA0A0041EA74
:100840000B0153465A46084313D0114653EA0100A0
:1008500019D0C8F140025046FFF777FF05460E4613
:10086000504659464246FFF761FF084305D0012034
:1008700004E020463946BDE8F08D0020054346EAF5
:10088000E0762C4337430A986305E40AA0EB08009E
:100890000022FD0A44EA47540A3002D500200146EE
:1008A000E9E7010510196941DDE9084500196941C9
:1008B000BDE8F04DA2E72DE9F04D00231A461B1AC2
:1008C0008A4103DB00200146BDE8F08DC1F30A52E6
:1008D000C1F3130141F480154FF0000BD10702D191
:1008E00000186D41521E0027044640F2FF113846A1
:1008F00001EB620A3E468046024600204FF480111A
:10090000FFF723FFC2197141BB1846EB0100B4EB9E
:10091000030C75EB000C04D3E41A65EB00051746D5
:100920000E46241908F101006D4180463428E3DDAC
:10093000F91946EB0600091BA84103D24FF0FF321C
:10094000134601E0002213461BEB070046EB0A5159
:10095000BDE8F04DFFF752BF064C074D06E0E068DA
:1009600040F0010394E8070098471034AC42F6D3F6
:10097000FFF7C0FB903C0008B03C000870B58C1835
:1009800010F8015B15F0070301D110F8013B2A11A3
:1009900006D110F8012B03E010F8016B01F8016B90
:1009A0005B1EF9D12B0705D40023521E0DD401F88C
:1009B000013BFAE710F8013BCB1A921C03E013F855
:1009C000015B01F8015B521EF9D5A142D8D300208A
:1009D00070BD0029816802D041F0010101E021F0E1
:1009E000010181607047000010B5204800210122FC
:1009F0000160027142714FF46022C0E902210321BB
:100A000001741B4C0146204600F04CF806230122DD
:100A10000521204600F06AF8062302220421204620
:100A200000F064F8062303220021204600F05EF85F
:100A30000121204600F01EF801212046FFF7C9FFE2
:100A4000204600F08DF8204600F025F80028FAD165
:100A5000204600F094F8204600F016F80028FAD15D
:100A60002046BDE81040012100F07FB8E0070020DB
:100A7000002401400029816802D041F4807101E026
:100A800021F4807181607047014600208968490720
:100A900000D501207047014600208968090700D56C
:100AA0000120704710B542680E4B0C791A400B6854
:100AB00042EA04221343436083680B4A1340D1E99E
:100AC000024222434C7943EA44031A438260C26AD9
:100AD000097C22F47002491EC9B242EA0151C16286
:100AE00010BD0000FFFEF0FFFDF7F1FF70B5072419
:100AF00009290AD9C568A1F10A0606EB4606B440E1
:100B0000A543B3401D43C56007E0056901EB4106FD
:100B1000B440A543B3401D4305611F23072A09D2F2
:100B2000446B521E02EB820293409C4391400C4363
:100B3000446370BD0D2A09D2046BD21F02EB8202FE
:100B400093409C4391400C43046370BDC46A0D3ACA
:100B500002EB820293409C4391400C43C46270BDFF
:100B6000816841F00801816070470029816802D0E6
:100B700041F4A00101E021F4A00181607047816887
:100B800041F0040181607047FEE7C1B2000A40EA0B
:100B9000012070472DE9F84F0020ADF80000DFF884
:100BA00034A14BF6BF7648F280074A4D4A4C40F6D6
:100BB0008F7848F60F7BDFF824910AF1440A31E080
:100BC0000888474A10F00F00107034D0454901EBF7
:100BD0008001D1F8002CADF80020BDF800201204EF
:100BE0000BD5D1F8002C02EA0802C1F8002C3E49CE
:100BF00001EB800050F8040C8047BDF800000006AF
:100C000010D537483749007801EB8001D1F8002C26
:100C100002EA0B02C1F8002C344901EB800050F8C5
:100C2000040C8047DAF800004946A9F800000004E7
:100C3000C6D4BDE8F88F28682080208800F03000F6
:100C40006080208800F4405020802868304080F484
:100C5000005080F02000384328600888C0062868CB
:100C600015D400EA0B00286000F078FE26E0218809
:100C7000890401D580F400506188C90626D46188B2
:100C8000890601D580F0200038432860D1E7ADF80F
:100C90000000BDF80000000506D5286800EA08003D
:100CA000286001F0EBFB09E0BDF800000004B9D5B5
:100CB000286800EA0800286000F0C0FF2868218842
:100CC0003040C904D3D580F48050D0E780F01000C4
:100CD000D5E70000005C00409E0700209E06002033
:100CE0008C07002000500040C4060020A806002009
:100CF000810008480844D0F8001C490409D5D0F800
:100D0000001C48F68F7211404CF280021143C0F86B
:100D1000001C704700500040810008480844D0F88B
:100D2000001C490609D5D0F8001C48F68F72114006
:100D300048F2C0021143C0F8001C70470050004048
:100D4000810006480144D1F8000C48F68F6210403B
:100D500048F280021043C1F8000C70470050004078
:100D60002DE9FC41434803210068FFF7A3FA424FF5
:100D70003946FFF72FFAFFF770FC404A404BFFF768
:100D80004CFB404C05460E462068FFF766FC2A46A1
:100D90003346FFF79BFAFFF7A3FC2060B84203DB62
:100DA0003946FFF711FA206037493848CDE900018C
:100DB0003848374B0268384801683848006802F004
:100DC0009DFC374C2088FFF709FC0146354800F0B0
:100DD0000FFE3549FFF7FBF9FFF73FFC334E0022CA
:100DE0003346FFF71AFBDFF8C88000224346FFF7BF
:100DF00086FBFFF775FC2F4D28606088FFF7EEFB40
:100E000001462848183800F0F3FD2B49FFF7DFF9B9
:100E1000FFF723FC00223346FFF7FFFA0022434688
:100E2000FFF76DFBFFF75CFC244F3860A088FFF7ED
:100E3000D5FB01461B48303800F0DAFD2049FFF7AA
:100E4000C6F9FFF70AFC00223346FFF7E6FA002254
:100E50004346FFF754FBFFF743FC1A491A4A1C4B61
:100E600008601A49CDE900122A68396802F046FE86
:100E7000BDE8FC81680000200000B443FCA9F1D269
:100E80004D62503F700000205400002050000020B0
:100E90004C000020200000201C0000201800002032
:100EA00008000020500600200000434500A05440E8
:100EB00000FEAF40380000200020434534000020F1
:100EC00000D04345300000202C00002028000020E6
:100ED000240000200029016802D041F0010102E055
:100EE0004FF6FE72114001607047000010B5114CC2
:100EF000204600F027F811490F48002208601048EA
:100F0000C1E901020320C1E90302802048614000D9
:100F100088618000C861202008620002C1E90902DE
:100F2000204600F081F82046BDE810400121FFF77F
:100F3000D1BF0000080002404C240140F40700200B
:100F40000800002001684FF6FE7211400160002188
:100F5000016041608160C1603149314A0839904285
:100F600003D1486840F00F0006E02D4A1432904249
:100F700004D1486840F0F00048607047284A2832A1
:100F8000904203D1486840F47060F5E7244A3C324F
:100F9000904203D1486840F47040EDE7204A503257
:100FA000904203D1486840F47020E5E71C4A64325F
:100FB000904203D1486840F47000DDE7184A783267
:100FC000904203D1486840F07060D5E7154A111F80
:100FD000904203D1086840F00F0006E0114A143235
:100FE000904204D1086840F0F000086070470D4A54
:100FF0002832904203D1086840F47060F5E7094A4E
:101000003C32904203D1086840F47040EDE7054A55
:1010100050329042EAD1086840F47020E5E70000C1
:10102000080002400804024030B5036847F6F07239
:1010300093430C6A8A682243D1E904452C43224336
:101040008C692243CC6922434C6A22438C6A224336
:101050001A430260CA6842600A6882604968C160D7
:1010600030BD00002DE9F047DFF89480254F4FF0A8
:101070003009D8F8001001F11005088A0E7A08B975
:10108000042E04D0AC88A04214D8042613E01E48D5
:10109000017859B11D4A002112681D4B120403EB5F
:1010A000D2325160A7F80090017023E0072610208B
:1010B00038801FE00226844200D90446A9682046F1
:1010C00088478246002000F037FB01462246504602
:1010D00002F068F92146002001F0D8F82888001BAA
:1010E0002880688820446880A7F8009009494FF458
:1010F00040500880D8F800000672BDE8F087000074
:1011000090070020A007002084070020505C0040CA
:10111000006000409E0700202DE9F0472A4EDFF8CE
:10112000AC802B4F35684FF0300935F8100FA968A7
:10113000A9B100B3AC88844200D904462046884750
:1011400082462888001B2880688820446880002008
:1011500000F0D2FA01462246504600F093FD28885E
:1011600048B14FF44051A8F800100021084601F0A2
:101170008DF8A7F800902888A988884201D3032019
:1011800001E020B1052031680872BDE8F0873168C0
:10119000062008720F480068806880473068007A2F
:1011A00008280AD00C49002009680C4A090402EBFF
:1011B000D131486048463880E7E74FF48051A8F8BD
:1011C00000101020F7E70000900700209E07002085
:1011D000A007002094070020505C00400060004001
:1011E000F8B55D4C5D4D09262068002729684278D6
:1011F000062A05D0AAB1082A4DD00A2A50D06BE0A1
:101200000278520668D18078012804D0022804D0E0
:10121000032804D060E0C96956E0096A54E0496ACD
:1012200052E04288B2BBC288022A55D102798ABBF9
:101230000278530601D1838833B102F07F02012A7C
:1012400004D0022A0CD047E045493DE08A69407944
:1012500000219047F0B92068807A0028F4D13BE063
:10126000417901F00F0001F070020B063D4901EBDE
:101270008001D1F8001C03D5C1F30111090102E07E
:10128000C1F301310903384B1B78834224D90AB9D1
:101290000029D9D120E0007840061DD1334913E060
:1012A000027802F07F02012A16D1827AA2B1428826
:1012B00092B9027982B9C288012A0DD18A6940792E
:1012C0000021904740B92A4931B1206847828161A5
:1012D00000208847002006E02968206809694078D6
:1012E0008847032813D021680A8AA2F57F43FF3B71
:1012F0000BD002280ED06AB10878000626D5C8881F
:10130000009082420AD9088218E00E72F8BD206867
:101310000672F8BD4FF008000872F8BD0ED22868BA
:10132000144B90F82C00824201D21F7006E0B2FBF1
:10133000F0F400FB142008B901201870286890F818
:101340002C008882BDE8F840FFF78CBE03200872AD
:10135000094900030880F8BD900700209407002089
:10136000C1260008005000404C0700205526000808
:1013700099260008840700209E070020704700007F
:1013800001B503480099C160C1680029FCD108BDBE
:101390000C02002001490120086070470000002075
:1013A000084910B501200860032000F0B5F906498E
:1013B00002460860BDE810404FF48871034800F011
:1013C00061BC0000040000209806002020080020D6
:1013D00001490860704700001404014004490A688C
:1013E00022F010020A600A6802430A607047000097
:1013F00000200240034A116801F0380101431160E6
:1014000070470000002002402DE9F041174CCC202D
:10141000174E20801820E0700325A5702146304625
:1014200000F06EF8134F25802146384600F068F82A
:101430004FF4E07020800420E070A570214638460B
:1014400000F05EF8B01420801020E070A5702146F6
:10145000384600F055F8052020800020E070214635
:101460003046BDE8F04100F04BB800001C020020FF
:1014700000080140000C0140194A1A49904203D16A
:101480008869C0F380007047174A904203D1886989
:10149000C0F3C0007047154A904203D18869C0F379
:1014A00000107047124A904203D18869C0F340107F
:1014B0007047104A904203D18869C0F3801070478A
:1014C0000D4A904203D18869C0F3C01070470B4A9F
:1014D000904203D18869C0F3002070470020704714
:1014E0000008014000100240000C014000100140C3
:1014F0000014014000180140001C01400020014080
:10150000F0B5CA78002502F00F03D20601D58A781B
:1015100013430A784FF00F0E12F0FF0F4FF0010245
:101520001CD004680F8802FA05F63740B74211D183
:101530004FEA850C0EFA0CF724EA070703FA0CF4BD
:101540003C43CF78282F02D0482F02D002E04661DA
:1015500000E006616D1C082DE4D304600C88FF2CAC
:101560001ED944685FF0000606F1080702FA07F585
:101570000F882F40AF420FD14FEA860C0EFA0CF7BE
:10158000BC4303FA0CF73C43CF78282F00D14561C8
:10159000CF78482F00D10561761C082EE4D3446033
:1015A000F0BDF0B51F4616460D4604460F2901D979
:1015B0000020F0BDFFF760FF18B90121204600F0C0
:1015C00021F86FB90120A840022E02D0032E03D0CB
:1015D00006E0E168814302E0E16802260143E16040
:1015E000082D01D3241D083D2168A8000F22824048
:1015F0009143216047EA86018140206801432160D0
:101600000120F0BDF0B5304A304B314C314D324EF7
:10161000324FDFF8CCC0DFF8CCE051B3704503D1D6
:10162000906940F0040004E0984204D1906940F0D1
:1016300008009061F0BDA04203D1906940F0100015
:10164000F7E7A84203D1906940F02000F1E7B042EB
:1016500003D1906940F04000EBE7B84203D19069B4
:1016600040F08000E5E76045E4D1906940F4807087
:10167000DFE7704503D1906920F00400D9E7984274
:1016800003D1906920F00800D3E7A04203D190690C
:1016900020F01000CDE7A84203D1906920F020008F
:1016A000C7E7B04203D1906920F04000C1E7B842DB
:1016B00003D1906920F08000BBE76045BAD1906902
:1016C00020F48070B5E7000000100240000C0140DB
:1016D000001001400014014000180140001C0140AE
:1016E0000020014000080140806880B270474161DD
:1016F00070470161704700000549096889B201EB34
:10170000C000044901EB4000008980B2704700002E
:10171000505C0040006000400549096889B201EB57
:10172000C000044901EB40008089C0F30900704704
:10173000505C0040006000400449096889B201EB38
:10174000C000034931F8100080B27047505C00407F
:10175000006000400A4810B50168001D0468001DC3
:10176000006808180BD00822064900F025F9054941
:1017700020460422BDE81040103100F01DB910BD14
:10178000E8F7FF1F7E06002070B52248B421002430
:10179000018044804FF6FF718180C4801E4D047229
:1017A0000146284601F056FC0121284601F00AFCBA
:1017B0004021284601F010FC0421284601F01AFCC3
:1017C000144903201A310C804C808880CC800C8115
:1017D000284601F049FA0F4970200A31088001209B
:1017E00048800C81C880284601F022FB042128464D
:1017F00001F01EFA01220621284601F0CBFA012150
:10180000284601F01BFA2846BDE87040502101F03F
:10181000E9BB0000BC07002000080040FEE7000014
:101820002DE9F05F454E464FDFF818A1DFF818B1FB
:10183000DFF81881DFF818913068FEF70EFF0446D4
:101840000D463868FEF709FF42464B46FEF73EFD5F
:101850002B462246FEF714FF01D2012111E0306829
:10186000FEF7FBFE04460D463868FEF7F6FE4246DC
:101870004B46FEF7CCFD22462B46FEF719FF03D25E
:101880000021042001F03AF85546DAF80000FEF78E
:10189000E4FE07460C465E46DBF80000FEF7DDFE80
:1018A00042464B46FEF712FD3A462346FEF7E8FE57
:1018B00001D2012111E02868FEF7CFFE05460C4653
:1018C0003068FEF7CAFE42464B46FEF7A0FD2A46A8
:1018D0002346FEF7EDFE03D20021032001F00EF8AF
:1018E0001C4E3068FEF7B9FE1B4D04460F462868B3
:1018F000FEF7B3FE42464B46FEF7E8FC22463B4667
:10190000FEF7BEFE01D2012111E03068FEF7A5FE10
:1019100004460E462868FEF7A0FE42464B46FEF7F8
:1019200076FD22463346FEF7C3FE05D20021BDE810
:10193000F05F022000F0E2BFBDE8F09F4C00002005
:101940003000002050000020340000209A9999991E
:101950009999C93F540000203800002010B5134C5D
:101960002068017A022904D0042902D0062905D072
:1019700015E0FFF777FB2068007A11E04178052930
:1019800009D10178490606D1C07800F0F1FB08487A
:101990000068006A80470748006880688047082020
:1019A00021680872BDE8104000F0CCB99007002013
:1019B0009807002094070020F0B500230A24302562
:1019C00037261F4611E000BFB4EB107F02D905EBAC
:1019D000107C01E006EB107C01F813C001EB430C16
:1019E00000015B1C8CF80170DBB29342ECD3F0BDBC
:1019F0002DE9F04104460F46D4E900152846FEF7CC
:101A000091FB01462846FEF717FC606125690646F2
:101A100029463846FEF7D8FB3146FEF7DBFB294660
:101A2000FEF780FB0146E0602846FEF7CDFB01F0A3
:101A300001FEA168FEF7CEFBFEF70FFE05468846C5
:101A40006068FEF70AFE07460E466069FEF705FE6F
:101A50000022094BFEF7DEFC3A463346FEF7DDFC7A
:101A60002A464346FEF732FCFEF73AFE6060E06825
:101A70002061BDE8F08100000000F03FFEE710B5F6
:101A8000802000F069FA002810D04FF4803000F078
:101A90007FFA0121082000F0B7FA0121102000F0A0
:101AA000B3FABDE81040802000F0B6B910BD704711
:101AB00038B505208DF8000000248DF801408DF820
:101AC000024001258DF80350684600F00DF81E20F5
:101AD0008DF800008DF801408DF802508DF803500C
:101AE000684600F001F838BD70B50F23C47801785E
:101AF0000122F4B1144C2468457804F4E064C4F580
:101B0000E064240AC4F10406E3408478B5401C4034
:101B10002C4301F1E021230181F80034007800F02A
:101B20001F018A404009800000F1E020C0F8002138
:101B300070BD01F01F0082404809800000F1E020E4
:101B4000C0F8802170BD00000CED00E002490843A0
:101B500002490860704700000000FA050CED00E043
:101B600070B5304D4FF000062868017844784A0679
:101B700006D001F07F0001282AD002282DD037E0BE
:101B8000092C06D0052C07D0032C0ED0012C14D024
:101B90002EE000F0DFFD2AE0C1787F2930D881787F
:101BA00071BB818861BB807A29E0C17801291FD18E
:101BB0008088E8B900F0EAFD19E0C178012917D161
:101BC0008188A9B9407A800612D51748466009E095
:101BD0000B2C0DD100F030FE09E0012C02D0032CBB
:101BE00003D005E000F0B8FC01E000F0E1FD58B1E1
:101BF0000E492046096849698847032802D018B170
:101C000008200CE009200AE0094906200968094A71
:101C1000090402EBD131084A4E6030211180296855
:101C2000087270BD900700208407002094070020F0
:101C3000505C004000600040A007002010B50F4C31
:101C40002068007A022811D004280FD0032804D07D
:101C5000052802D0072805D008E0FFF75DFA2068C4
:101C6000007A04E006480068C068804708202168C0
:101C70000872BDE8104000F065B800009007002031
:101C800094070020064B521C520803EB410105D07B
:101C900031F8043B20F8023B521EF9D17047000096
:101CA0000060004010B5044611F0FF400FD0094815
:101CB000814202D140F2D17009E00846FEF7A0FC53
:101CC00080B240F2CE7148436421B0FBF1F020872E
:101CD00010BD00000000C84210B5044611F0FF40DE
:101CE0000FD00948814202D140F2D17009E0084684
:101CF000FEF786FC80B240F2CE7148436421B0FB0F
:101D0000F1F0A08710BD00000000C84210B50446E5
:101D100011F0FF400FD00948814202D140F2D1704A
:101D200009E00846FEF76CFC80B240F2CE714843F1
:101D30006421B0FBF1F0A4F8400010BD0000C842DF
:101D4000704700000C4810B590F82C10002000F0EF
:101D500043FA0A480068007A082802D0092809D006
:101D600006E007494FF4805008800649102008809B
:101D7000002010BD012010BDFC06002090070020AF
:101D80009E070020A007002070B5012001F014FA82
:101D9000084C01202060084D002028802060201D74
:101DA0000068002000F0A6FA4FF4E0502880206080
:101DB000002070BD405C00409C070020034A516831
:101DC00021F440410143516070470000001002407F
:101DD000044A0029516901D0014300E08143516167
:101DE0007047000000100240044A0029D16901D068
:101DF000014300E08143D1617047000000100240C0
:101E0000044A0029916901D0014300E081439161B6
:101E100070470000001002400149887270470000BE
:101E2000001002400149C8647047000000004242AF
:101E300010B54FF40040FFF7C1FF01210846FFF73E
:101E4000C7FF01210720FFF7CFFFBDE810400121A8
:101E500040F21D20FFF7D4BF0C48016841F001019A
:101E6000016041680A4A114041600168094A114015
:101E70000160016821F480210160416821F4FE01C4
:101E800041604FF41F018160704700000010024064
:101E90000000FFF8FFFFF6FE30B51F494A6812F058
:101EA0000C031E4A03D0042B01D0082B21D0026062
:101EB0004A680F231A4C03EA1212A35C0268DA4044
:101EC00042604B68072505EA1323E35C22FA03F31B
:101ED00083604B6805EAD323E35CDA40C26049685B
:101EE000032303EA9131231F595CB2FBF1F1016135
:101EF00030BD4A684B6802F470124FF0020413F4CC
:101F0000803F04EB924202D04B689B0301D5054B06
:101F100000E0024B5A43CAE70010024000127A0068
:101F2000FC01002000093D00024600205309094938
:101F3000012B0BD0022B0BD0D1F8241002F01F0282
:101F4000012393400B4200D0012070470968F5E758
:101F5000096AF3E700100240034A01460020926834
:101F60000A4200D001207047001002400248406839
:101F700000F00C007047000000100240034A516856
:101F800021F0F00101435160704700000010024051
:101F90000B490A6822F480320A600A6822F480221F
:101FA0000A60B0F5803F07D0B0F5802F03D10868F4
:101FB00040F4A02008607047086840F48030F9E7DA
:101FC0000010024010B50820FFF7C6FF48B10820F6
:101FD000FFF722FF3120FFF7A7FF10B1012000F02B
:101FE00033F81020FFF7B8FF00280CD01020FFF7BF
:101FF00013FF3920FFF798FF002804D0BDE81040F8
:10200000022000F031B810BD044A0029517A01D0F5
:10201000014300E08143517270470000001002400C
:10202000034A516821F4E0610143516070470000A8
:102030000010024003494A6822F4605242EAC0009C
:102040004860704700100240014908667047000070
:1020500000004242034A5368084323F47C131843A8
:102060005060704700100240034A516821F003019C
:102070000143516070470000001002400149C1F85F
:10208000D80070470000424218B500204FF4A06409
:1020900000903120FFF748FF0099491C0091A142B0
:1020A00001D00028F5D03120FFF73EFF002800D0F6
:1020B000012018BDF0B5214A072800D0107016780D
:1020C0001E4B0625052104241D48062E0AD2DFE8F2
:1020D00006F0030B10151D26586808B11170F0BDED
:1020E00000F030F81570F0BD00F02CF814700120ED
:1020F00022E00220507003201070F0BD5078401E86
:10210000507050780028F8D11470F0BD03689BB26D
:1021100043F01003036011700A205070F0BD517835
:10212000491E517051780029F8D1016889B221F017
:1021300010010160157000205860F0BD7C07002080
:10214000405C00400448016889B221F0040101604C
:102150004FF43F4101607047405C00407047000011
:10216000024920F00700086070470000505C004002
:10217000F0B50E490E4D48F68F770B78002148F2E6
:10218000800C0BE0CEB205EB8604D4F8002C3A406C
:10219000324342EA0C02C4F8002C491C9942F1D3A4
:1021A000044940F080000860F0BD00004C070020AA
:1021B000005000404C5C0040054A21F001011268CB
:1021C00092B202EBC000034A02EB4000816070470C
:1021D000505C0040006000400D4A12683E2992B2F7
:1021E00002EBC0000B4A02EB400209D94809C906BC
:1021F00001D1401E80B24FF4004141EA802004E04A
:102200004808C90700D0401C8002106070470000D9
:10221000505C00400C60004082000A480244D2F842
:10222000000C4BF68F731840CB0401D580F480501E
:10223000890401D580F4005048F280010843C2F8B7
:10224000000C704700500040810007480144D1F85D
:10225000000C4BF68F72104080F4405048F2800220
:102260001043C1F8000C704700500040054A21F0AF
:102270000101126892B202EBC000034A42F810104A
:1022800070470000505C004000600040044A126843
:1022900092B202EBC000034A02EB4000416070477B
:1022A000505C00400060004082000A480244D2F8BE
:1022B000000C48F6BF731840CB0601D580F0100023
:1022C000890601D580F0200048F280010843C2F859
:1022D000000C704700500040820005480244D2F8CC
:1022E000000C48F68F1318400843C2F8000C7047E2
:1022F000005000400149086070470000445C004005
:1023000010B5FFF7A9FD4FF480342046FFF740FEDB
:10231000FFF7BAFE15490128087100D0FEE710202A
:10232000FFF75CF80220FFF765F80020FFF726FEB4
:102330000020FFF77FFE4FF48060FFF771FE4FF43F
:10234000E0112046FFF786FE0120FFF77DFE3920D1
:10235000FFF7EAFD0028FAD00220FFF785FE00BF54
:10236000FFF704FE0828FBD110BD0000100000207C
:102370000CB50021264801910091026842F4803298
:1023800002604FF4A063026802F400320092019AE6
:10239000521C0192009A12B9019A9A42F3D1026832
:1023A000920333D5012100911A490A6842F01002C4
:1023B0000A600A6822F003020A600A6842F0020218
:1023C0000A604168416041684160416841F4806150
:1023D0004160416821F47C114160416841F4E81199
:1023E0004160016841F08071016001688901FCD59C
:1023F000416821F003014160416841F00201416000
:102400004168C1F381010229FAD10CBD00910CBDD4
:10241000001002400020024038B501210420FFF7DF
:10242000EFFC4FF4C050ADF8000003248DF80240DB
:1024300018208DF8030069460A48FFF761F801216A
:102440007C20FFF7DDFC4FF48040ADF800008DF8F4
:10245000024014208DF8030001210820FFF7D0FC72
:1024600038BD00000008014010B50020FFF706FE4F
:102470000121BDE81040C805FFF7B6BC70B516488D
:102480000068174D0004C10B14480144098989B242
:1024900000EB41042868017A09290FD021780170E6
:1024A00061784170A088FEF770FB29684880208918
:1024B000FEF76BFB29688880A089C8802868012105
:1024C0000172C08828B1FEF78BFEBDE87040FFF7AF
:1024D00039BCFFF745FBF8E7505C00400060004066
:1024E0009007002010B51A4C2078002819D14FF41D
:1024F0007A70FEF745FF1748007806281ED2DFE8FD
:1025000000F003060A1115180121032005E001213E
:10251000032000F0F3F90121022000F0EFF901207F
:10252000207010BD0121022000F0E8F901210420F3
:10253000F3E70121042000F0E1F9E5E700210420A0
:1025400000F0DCF90021032000F0D8F90021E3E7D6
:10255000110000205A0000202DE9F04138480068A1
:10256000017811F07F0102D0022905D066E0417A9E
:1025700001F0DF0141724EE0418800295ED101790E
:10258000F1BB4179304D21F080040A0605EB84024D
:102590002C4BD2F8002C03D5C2F30112120102E039
:1025A000C2F3013212031E782346A64246D93AB33B
:1025B000807A28B308064FEA84000ED52844D0F864
:1025C000000CC0F30110012821D11846FEF7A4FB2E
:1025D00020463021FFF768FE19E04619D6F8000CB6
:1025E000C0F30130012812D14BF68F7748F28008F2
:1025F000A4B11846FEF77CFBD6F8000C384000E08A
:102600001CE080F4405040EA0800C6F8000C0F4877
:102610000068406980470020BDE8F0810C4890F8D0
:102620002C100020FFF7D8FDD5F8000C384080F4BE
:10263000405040EA0800C5F8000CE8E70220EBE74C
:10264000900700204C070020005000409807002011
:10265000FC06002010B5074C30B107480068006840
:10266000804720680A3010BD2168012008820020C0
:1026700010BD00009007002098070020054A13684D
:102680005A8A10B10868104470478888801A1882E6
:10269000002070479007002010B5074C30B1074864
:1026A00000688068804720680C3010BD21680120D8
:1026B0000882002010BD000090070020980700202D
:1026C000204910B5096860B11F48002202800A78CD
:1026D00053060AD002F07F02012A16D0022A16D031
:1026E00001E002200882002010BD497A8A060278A3
:1026F00002D542F0020201E002F0FD02490602703A
:10270000D1B211D401F0FE0110E00F4810BD4A799A
:10271000110713060D4A02EB9161D1F8001C07D591
:10272000C1F3011106E0017841F00101017003E0FD
:10273000C1F301310129F6D00548006800698047DE
:10274000E3E70000900700208607002000500040CB
:10275000980700200A4810B500680A4AC1785278E4
:10276000914203D882780AB982880AB1022010BD4A
:1027700081720548006840688047002010BD000055
:10278000900700204C07002098070020064810B54D
:102790000068417A41F02001417204480068C06934
:1027A0008047002010BD00009007002098070020FF
:1027B00070B51D481D4D0368597921F0800005EB67
:1027C00080000C06D0F8004C21F0800203D5C4F341
:1027D0000114240102E0C4F301342403144D2D78C4
:1027E000954210D95A8872B96CB19A7A5AB10906D1
:1027F000D0F8001C48F2800207D548F6BF73194094
:1028000081F0100106E0022070BD4BF68F73194075
:1028100081F480511143C0F8001C064800688069AB
:102820008047002070BD000090070020005000404D
:102830004C0700209807002010B50E4C0E4A206867
:102840001268C17892694079904721688A7A22B1EA
:1028500018B9087908B9887808B1022010BD07486E
:102860000068C068804720684179C172C1780173EF
:10287000002010BD9007002094070020980700203A
:1028800070B51B4900200A681A4B94B21A4A00BF5F
:1028900003EB8005D5F8005CADB242F82050401C37
:1028A0000828F5D344F48060086040F00100086017
:1028B00020F001040C600E48001D05686D05FCD574
:1028C0004FF6FF350560002052F8205003EB8006DC
:1028D000ADB2C6F8005C401C0828F5D344F00800EF
:1028E0000860086880B240F00400086070BD000015
:1028F000405C0040005000406008002010B51A4ABB
:102900001A4C1B4B04280BD0032818D002280FD1D7
:1029100019B319461046FFF7C5F94FF4003006E029
:1029200039B119461046FFF7F1F94FF40020206144
:1029300010BD00211046FFF7E9F90820F7E731B193
:1029400019461046FFF7C8F94FF48020EFE7002141
:102950001046FFF7C1F90420E9E700211046FFF710
:10296000A1F90220E3E70000000400400008014054
:102970000000A04070B50D480124047000F00EFC6A
:102980000B480C4A8188491C89B281801578002344
:102990002DB10A2902D108490C70838070BDA1F5C0
:1029A0009C45203DFAD11470F7E70000100000208C
:1029B0005800002013000020120000200F4810B51E
:1029C000016841F00101016041680D4A1140416018
:1029D00001680C4A11400160016821F48021016006
:1029E000416821F4FE0141604FF41F018160FFF74F
:1029F000BFFC05494FF00060086010BD00100240A8
:102A00000000FFF8FFFFF6FE08ED00E070B5048C53
:102A100024F001040484058B048C4FF6FF7606EA4B
:102A20000313134325F0F3050E4A2B4390420ED0B7
:102A30000D4A90420BD0B0F1804F08D00B4A904223
:102A400005D00B4A904202D00A4A904202D124F0AB
:102A5000020201E024F00A020A4342F0010103836A
:102A6000018470BD002C014000340140000400408E
:102A700000080040000C0040F0B5048C24F0100465
:102A80000484078B048C4FF6FF7527F4734705EA1F
:102A900003333B4305EA02221A43114B05EA0116B0
:102AA00098420ED00F4B98420BD0B0F1804F08D017
:102AB0000D4B984205D00D4B984202D00C4B9842DA
:102AC00005D124F02001314341F0100104E024F04D
:102AD000A0030B4343F0100102830184F0BD00000A
:102AE000002C014000340140000400400008004078
:102AF000000C00402DE9F041424F0221384600F021
:102B0000A7F80026404C0125F0B30221384600F01A
:102B100092F83E4805703B4834300088A060A078A9
:102B20003B4D052814D1A06800EB40000001FDF7E3
:102B300055FD01462846FDF77FFB07463549E0680D
:102B4000FDF748FB3946FDF7E7FD01D2E67002E0EC
:102B5000E078401CE070A06800EB40000001FDF749
:102B60003DFD01462846FDF767FBE0602648E57815
:102B70001C3050F82510E068FDF72CFB206122483E
:102B8000DC3050F8251000E005E0E068FDF722FB9E
:102B90006061BDE8F0810421384600F059F8002852
:102BA000F7D00421384600F046F865701A48FEF761
:102BB0009BFDC0F38210E080E088092820D2DFE886
:102BC00000F00507090C0E10121F150009200EE079
:102BD000022009E0A67025700AE0A570FBE704203A
:102BE00002E0032000E00520A070F4E70B20207035
:102BF000A078C0EB00108000FDF7F0FCA061C8E7F2
:102C00000F20F4E700080040580000200E000020CC
:102C10000050C3489A99D93F000C0140002901880F
:102C200002D041F0800101E021F080010180704775
:102C3000C94301827047C943018270470029018856
:102C400002D041F0010101E021F001010180704753
:102C500002460020138A92890B4202EA010202D046
:102C6000002A00D0012070472DE9F05F0D46044690
:102C70000888434FDFF80CC1DFF80C814988AA8827
:102C80002B894FF0804960B3042833D04FF6FF7E84
:102C9000082838D0208C9B4620F480502084A38BB9
:102CA000268C704600EA022223F473431A4300EA9A
:102CB0000B3010430EEA013EBC420BD0644509D0F4
:102CC0004C4507D0444505D0304A944202D0304BA1
:102CD0009C4248D126F4005141EA0E0141F4805152
:102CE00046E02046FFF792FEE9882046BDE8F05F07
:102CF00000F088B92046FFF7BFFEE9882046BDE80E
:102D0000F05F00F087B9208C20F480702084B4F844
:102D10001CA0208C0EEA031313432AF0F30A0EEAD8
:102D2000012B43EA0A03BC420BD0644509D04C4551
:102D300007D0444505D0154A944202D0144A944223
:102D400004D120F4007040EA0B0002E020F420607F
:102D5000084340F48070A3832084E9882046BDE8BE
:102D6000F05F00F063B926F402420A4342F4805156
:102D7000A08320462184E988BDE8F05F00F05EB9B9
:102D8000002C0140003401400004004000080040D5
:102D9000000C0040002A828901D00A4300E08A43E7
:102DA0008281704730B5028C22F001020284028CCD
:102DB0008388048B22F0020224F073050C882C43D4
:102DC0000D8915434A882A43114DA8420BD0114D55
:102DD000A84208D0104DA84205D0104DA84202D0FC
:102DE0000F4DA8420DD122F008054A8923F4407303
:102DF0002A4322F004058A882A438D891D43CB8902
:102E00002B4383800483C9888186028430BD0000FF
:102E1000002C0140003401400040014000440140CA
:102E200000480140028B22F008020A4302837047E7
:102E300070B5028C22F010020284028C8488038B0D
:102E40000D8823F4E6464FF6FF7303EA0525354364
:102E50000E8922F0200203EA061616434A8803EA86
:102E600002123243104EB04202D0104EB04215D181
:102E700022F080064A8924F4406403EA02123243B5
:102E800022F040068A8803EA021232438E8903EA5E
:102E900086062643CC8903EA840434438480058370
:102EA000C9880187028470BD002C014000340140B4
:102EB000028B4FF6FF7322F4006203EA01211143F3
:102EC0000183704770B5028C22F480720284028CF8
:102ED0008488838B0D8823F073031D4322F40073D1
:102EE0000E894FF6FF7202EA06261E434B8802EA5D
:102EF00003233343104EB04202D0104EB04215D1DE
:102F000023F400664B8924F4405402EA032333433C
:102F100023F480668B8802EA032333438E8902EA16
:102F200006162643CC8902EA041434438480858340
:102F3000C9888187038470BD002C014000340140A2
:102F4000828B22F008020A438283704770B5028C9C
:102F500022F480520284048C8288838B0D8823F4AF
:102F6000E6464FF6FF7303EA0525354324F4005681
:102F70000C8903EA043434434E8803EA06362643B8
:102F8000094CA04202D0094CA04205D122F4804451
:102F90008A8903EA8212224382808583C988A0F845
:102FA0004010068470BD0000002C01400034014038
:102FB000828B4FF6FF7322F4006203EA0121114372
:102FC000818370470029818802D041F0800101E0AF
:102FD00021F0800181807047028922F070020A434B
:102FE00002817047828822F07002828082880A43C0
:102FF00082807047028922F00702028102890A4317
:1030000002817047028B22F00C020283028B0A437A
:1030100002837047028B22F440620283028B4FF6D8
:10302000FF7303EA01210A4302837047828B22F077
:103030000C028283828B0A4382837047828B22F444
:1030400040628283828B4FF6FF7303EA01210A43B9
:103050008283704730B502881B4B1C4C98420DD0C0
:10306000A0420BD0B0F1804F08D0194DA84205D036
:10307000184DA84202D0184DA84203D122F0700585
:103080004A882A43154DA84206D0154DA84203D0C0
:1030900022F44075CA882A4302808A8882850A8879
:1030A000028598420AD0A04208D00E4A904205D02C
:1030B0000D4A904202D00D4A904201D1097A018610
:1030C0000121818230BD0000002C0140003401400C
:1030D0000004004000080040000C004000100040C8
:1030E00000140040004001400044014000480140FD
:1030F0002DE9F041264D27484721698140F2CF72E2
:10310000828001800027C780DFF88C8047800146DD
:103110004046FFF79FFF1F4C60200A3401262080A5
:1031200066806888E080278121464046FFF73AFEA6
:1031300008214046FFF776FE6680A888E080214699
:103140004046FFF775FE08214046FFF7B1FE668056
:10315000E888E08021464046FFF7B4FE082140465B
:10316000FFF7EEFE66802889E08021464046FFF7A3
:10317000EDFE08214046FFF71BFF01214046FFF707
:103180004DFD4046BDE8F0410121FFF757BD00006D
:103190000C020020BC070020000400400348C16866
:1031A000002902D0C168491EC16070470C0200208E
:1031B0004FF48020FEF70CB9044A00284FF48041F8
:1031C000104601D0FEF793BAFEF793BA000C014007
:1031D00006480549022201600A72064A0449C0E90C
:1031E00001120868004700008008002090070020B6
:1031F000FC0600205007002038B54FF4A060FEF711
:10320000A5FC14208DF8000002208DF8010000209C
:103210008DF8020001248DF803406846FEF764FC37
:103220002A208DF800008DF801406846FEF75CFC0E
:1032300038BD00002DE9F0414A4E88B000243068C6
:10324000494D68806988494F38880140890505D50E
:103250004FF6FF5131602978491C29706988014077
:10326000080401D5FDF796FC688839884FF6FF38C9
:103270000840400504D5C6F800803D4840688047B6
:10328000698838880140890402D54DF6FF713160A4
:1032900069880140C80405D54EF6FF7030600020F3
:1032A000FEF708FF68883988084000050BD53148CB
:1032B000007810B1FFF7E4FA02E00220FEF7FAFE10
:1032C0004FF2FF703060688839880840C00545D5E6
:1032D0004FF6FF6030602348001D00684FF0000388
:1032E000000437D56868401C68606868032832D9D4
:1032F0001C48001F016809072DD4016889B2A96024
:103300001D496A4601EB8407D7F8007CBFB242F83A
:103310002470641C082CF5D3AC6844F00104AC6044
:10332000AC68A4B20460AC6824F00104AC60AC6882
:10333000A4B2046030684005FCD5C6F800800020C7
:1033400052F8204001EB8006A4B2C6F8004C401CA5
:103350000828F5D36B600720FEF7ACFE08B0BDE887
:10336000F0810000445C00409C0600209C07002087
:10337000FC0600207807002000500040FFF75ABFED
:1033800005490020086005494FF43F400880024984
:10339000091F086000207047445C00409C07002023
:1033A000FEE70000094B10B5521C520803EB410127
:1033B0000AD000BF10F8013B521E10F8014B43EA3F
:1033C000042321F8043BF5D110BD0000006000404B
:1033D000104A10B500211268212802D0202807D0F9
:1033E00016E0107800F07F00212811D10A4908E08A
:1033F000107800F07F00212800D10849084B2020D8
:10340000187029B10020916150828847002010BDBA
:10341000022010BD900700203D340008B13500089F
:10342000E00600200149FFF729B90000F40600205A
:103430000149FFF723B90000EC06002008B1044859
:10344000704704490820096808820020704700007E
:10345000E40600209007002005490968C97804297E
:1034600001D300207047034A02EBC101FFF706B900
:10347000900700202C07002009B9012801D902205B
:10348000704700207047000007490968097801F07B
:103490007F01212903D1022803D0222801D0022054
:1034A000704700207047000090070020334810B597
:1034B0000068334A00218172D2794272C172084693
:1034C000FEF74EFE4FF400710020FEF705FF1021BD
:1034D0000020FEF7E9FE40210020FEF76DFE80216E
:1034E0000020FEF7C3FE0020FDF72AFC254890F8D7
:1034F0002C100020FEF770FE0020FEF7A5FE002134
:103500000120FEF7E9FEC0210120FEF7AFFE2021D9
:103510000120FEF7C9FE00210120FEF77DFE4FF4D9
:10352000C0610220FEF7D8FE4FF480710220FEF742
:103530009DFE00210220FEF76FFE20210220FEF7F3
:10354000B3FE00210320FEF7C7FE4FF4887103206D
:10355000FEF732FE40210320FEF73EFE4FF44051BD
:103560000320FEF759FE00210320FEF79DFE0020F8
:10357000FEF7FEFD04490120086010BD9007002001
:10358000EE3B0008FC060020740700200348807A08
:10359000002802D0024905200860704780080020FA
:1035A0007407002001490420086070477407002058
:1035B00008B10448704704490820096808820020BF
:1035C00070470000E40600209007002003480178BF
:1035D000202901D10021017070470000E006002081
:1035E0007047000010B5FEF7B5F8054800240068E4
:1035F0008472FEF7C9FBFFF7C3FE0248046010BDEA
:10360000900700207407002002E008C8121F08C1BC
:10361000002AFAD170477047002001E001C1121F53
:10362000002AFBD170470000014908607047000084
:10363000A407002010F1FF4F01D380F00040704735
:103640002DE9F047274D2946FCF76CFD264910F17E
:10365000FF4F02D3FCF766FD03E0884201DDFCF773
:10366000B3FD2249244E224FDFF88880A6F11404CE
:10367000884218DCA84201DDFCF7A9FDFCF7C0FF79
:10368000C0B2FCF7B0FF00223B46FCF7C6FE0022AA
:103690004346FCF734FFFCF7C7FF2070C0B256F872
:1036A0002000BDE8F0878946FCF78EFDA84202DDC8
:1036B0004946FCF78CFDFCF7A3FFC0B2FCF793FF73
:1036C00000223B46FCF7A9FE00224346FCF717FF09
:1036D000FCF7AAFF2070C0B256F8200080F000402E
:1036E000DFE700000000B4420000B44300003443B0
:1036F0000080494000003240200200202DE9F05FA8
:103700008B4681461F4630491046DDF828A0FCF75D
:1037100061FD2E4C80464546206800F073F95946FD
:10372000FCF758FD06462068FFF78AFF4946FCF77C
:1037300051FD3146FCF748FD2946FCF7F3FC244EC9
:103740003146FCF747FD3860224F20683946FCF7C8
:103750003BFD00F057F95946FCF73CFD054639465C
:103760002068FCF731FDFFF76BFF4946FCF732FD9F
:103770002946FCF729FD4146FCF7D4FC3146FCF70D
:1037800029FD154FCAF8000039462068FCF71CFDDA
:1037900000F038F95946FCF71DFD0546394620680A
:1037A000FCF712FDFFF74CFF4946FCF713FD2946D5
:1037B000FCF70AFD4146FCF7B5FC3146FCF70AFD73
:1037C0000B990860BDE8F09FF304353F70000020BE
:1037D000EC05513F0000F04200007043FEF790FD01
:1037E0007248FEF759FB0120FEF71CFBFEF760F95B
:1037F0006F484FF47A710068B0FBF1F0B0F1807F50
:1038000055D220F07F414FF0E020491E4161694AC6
:10381000F02182F8141D0025856107210161FEF762
:1038200007FBFDF7F1FDFFF763FC634C0323002268
:1038300001212046FDF7B5FE032300220221204688
:10384000FDF7AFFE0323002219462046FDF7A9FE2F
:103850000820206104202061022020615749C00611
:103860000861FDF791FFFDF7BFF8FDF73FFBFEF79D
:10387000D3FDFEF7F9FDFFF7BFFCFFF7A9FCFEF74C
:1038800031FE4F4C4F48A946C4E902504E482061D2
:103890004FF07E502062A0626062E061C4E9055092
:1038A0004A48DFF82CA1DFF82CB1056000E0FEE704
:1038B0002078F0B1FDF754FA6078012802D0022890
:1038C00013D014E0444D2878012810D100210420A1
:1038D000FFF714F800210320FFF710F80021022061
:1038E000FFF70CF885F8009001E0FDF799FF84F8E8
:1038F0000090E078012848D060780228D8D1A078DC
:103900000128D5D135480168E06AFCF75DFC054621
:103910006063206B0646FCF7A0FE314A314BFCF792
:103920007CFD314A314BFCF778FD0746884631462D
:103930002846FCF749FCFCF790FE2D4A2D4BFCF77E
:103940006CFD05460E46A06BFCF787FE2A46334603
:10395000FCF7BCFC43463A46FCF7B8FCFCF7C0FE5B
:10396000A063504501DCC4F838A0A06BFCF775FEDD
:10397000214A224BFCF7C3FD00F09AF8FCF7B0FE99
:103980002063584504DAE06004E002206070B6E786
:10399000C4F80CB01A4801210068FCF78BFCE16800
:1039A000FCF718FC2061606B206381E7A80700200A
:1039B000680600200FE000E000080140000C014014
:1039C000100000206ABC1C402DB25D40F4010020B4
:1039D00017B7D13800006040590000206C0000206B
:1039E000CE88D2DEE00B833FFCA9F1D24D62503F7E
:1039F00032E6AE25E4837E3F79E9263108ACAC3F60
:103A0000D83B00082DE9F04710F1FF4F02D32249BF
:103A1000FCF788FB2149254E214D224FDFF8888095
:103A2000A6F11404884218DCA84201DDFCF7CFFBA4
:103A3000FCF7E6FDC0B2FCF7D6FD00223B46FCF7E2
:103A4000ECFC00224346FCF75AFDFCF7EDFD20702C
:103A5000C0B256F82000BDE8F0878946FCF7B4FBF9
:103A6000A84202DD4946FCF7B2FBFCF7C9FDC0B233
:103A7000FCF7B9FD00223B46FCF7CFFC0022434691
:103A8000FCF73DFDFCF7D0FD2070C0B256F82000D9
:103A900080F00040DFE700000000B4430000344342
:103AA0000000B44200804940000032402002002063
:103AB0002DE9F04106460F46FCF7FDFE041E0D46BB
:103AC00018BF0120284320F00040C0F17F6000F1C2
:103AD000E040C00F0ED0301C18BF0120384320F04A
:103AE0000040C0F17F6000F1E040C00F04BF012042
:103AF000FFF79AFD20462946BDE8F0812DE9FF5FDA
:103B0000304C2F4F8B468246994639462068FCF749
:103B10005BFBFFF795FD0299FCF75CFBDFF8A880E3
:103B2000064641462068FCF74FFBFFF789FD5946E2
:103B3000FCF750FB05462068FFF782FD5146FCF775
:103B400049FB2946FCF7EEFA3146FCF7EBFA1F4930
:103B5000FCF740FBC9F8000039462068FCF734FB4D
:103B6000FFF750FF0299FCF735FB064641462068F7
:103B7000FCF72AFBFFF746FF5946FCF72BFB0546EF
:103B80002068FFF73FFF5146FCF724FB2946FCF76E
:103B9000C9FA3146FCF7C6FA0D49FCF71BFB0E9932
:103BA000086059465046FCF7BDFA0299FCF7BAFA8C
:103BB0000849FCF70FFB0F990860BDE8FF9F000064
:103BC00000007043700000200000F042EC05513FFF
:103BD000EC0551BF3ACD133FF304353F120100020B
:103BE000020202408304405700020102030109025D
:103BF0004300020100C0320904000001020201007A
:103C000005240010010524010001042402020524FA
:103C1000060001070582030800FF09040100020AEB
:103C20000000000705030240000007058102400074
:103C300000040309042603530054004D0069006387
:103C40000072006F0065006C006500630074007214
:103C5000006F006E0069006300730032035300546C
:103C6000004D0033003200200056006900720074DD
:103C700000750061006C00200043004F004D0020E3
:103C80000050006F0072007400200020000000004F
:103C9000B03C000800000020A80700007C090008D4
:103CA000F0420008A8070020F804000018360008B9
:103CB00032012904611A0A02012C031A2040031858
:103CC000646F10329FABAD3E098A973F0E2DCA3FFD
:103CD00003093A3F849E853F1FF47C3FA54E983FE1
:103CE00094F6363F8351C13FF9A0373FB537983F2F
:103CF000C4426D3F69183A873FFB5C4D3F4CA6D2EA
:103D00003F04562E3F6DC57E3FD0B3893F62A19ED2
:103D10003F22FD263F075FB83F7B146E3F3C4E615C
:103D20003FCC7F803F8126A23F5305333FC9E5AF9B
:103D300010183E683F5BB15F3F7C618A3F52B8AE6E
:103D40003F0A68123F30BBB73F68B38A3FA2B4470F
:103D50003F21B0723FEFC9C33F363C1D3FAEB6AA0C
:103D60003F9A087B3FB98D563FAB3E873F4A7B4326
:103D7000541889014080483F3F8FE4123F4ED1C91B
:103D80003F5C8F0A40E2E9F53E2506B93FBA499CFF
:103D90003F54E3453F5227883F986E823FA30184FA
:103DA0003F0DE05D3F7A369B3FDB8A4D3F39458FC3
:103DB0003F7CF2703F2EFF813F9D80763F6EA3993E
:103DC0003FF5B93A3F8716893FECC0893FD5098056
:103DD0003FA9A44E3F66669E3F88F45B3F287E6CF9
:103DE0003F925C863F7FD9853F6A4D533F59179775
:103DF0003F6DE75B3FF31F723F158CC0181727809C
:103E00003FA8C63B3F3D2CA43F6ABC643FFC18530F
:103E10003FC74B87D8181A8E3FBE9F3A3F10E9978D
:103E20003F7DD0633FEC51683F31998A3FA52C8399
:103E3000DC4013AB3F31082C3F8195633F0456C6ED
:103E40003F3A927B3F45020406082D010203040419
:103E5000051806070809180DD3D9C93BD3D9493C21
:103E60005E63973C0C00FF003C4850FC3CE2581756
:103E70003D1D94303DDBC4493D99F5623D57267C9C
:103E80003D8AAB8A3DAB3E973DCCD1A33DED64B0BE
:103E90003D0EF8BC3DF085C93DD313D63D789CE27C
:103EA0003D1C25EF3DC1ADFB3D9318043E475A0A2A
:103EB0003E5B99103ED0D5163E45121D3EBA4E23AC
:103EC0003EF085293EC6BF2F3E5EF4353EF6283CC7
:103ED0003EEE5A423EE78C483EA1B94E3E5CE65467
:103EE0003E77105B3E933A613E705F673E4D846D56
:103EF0003E8BA6733E8BC3793E8BE07F3E76FD8280
:103F00003E5709863EE813893E2A1D8C3E1C258FAC
:103F10003EBF2B923E1231953E1635983E7A369B27
:103F20003EDF379E3EA436A13E1A34A43E4030A761
:103F30003EC729AA3E4F23AD3E371AB03ED00FB33D
:103F40003EC902B63E73F4B83ECDE4BB3E89D2BE54
:103F50003EF5BEC13E11AAC43E8E92C73E6C78CAE1
:103F60003EFB5CCD3E3A304440D03EDA20D33EDAD0
:103F7000FED53E8CDBD83E9EB5DB3E618EDE3E84B8
:103F800064E13E0938E43EEE08E73E84D8E93E7A33
:103F9000A5EC3E2271EF3EDA38F23E43FFF43E0DCF
:103FA000C3F73E3884FA3E1344FD3E18FD3F4F5D93
:103FB000013FA6B8023F5513043F0D6C053F1EC4D8
:103FC000063FDF1A083F5070093FCAC30A3F9C16DC
:103FD0000C3F77670D3FAAB70E3FE605103FD25260
:103FE000113F179F123FBCE8133FBA31153F687964
:103FF000163F1FBF173F8603193FF6451A3FBE877E
:104000001B3F8FC71C3F10061E3F9A421F3FD47DA7
:10401000203FBFB7213FB3EF223F5726243FAB5B82
:10402000253F088F263F6EC0273F84F0283F4B1F57
:104030002A3F1B4C2B3F9A772C3F23A12D3FB4C81E
:104040002E3FF6EE2F3F4013313F9335323F9756C8
:10405000333F4B76343F6093353F25AF363FF3C84F
:10406000373F72E1383F51F7393FE10B3B3F791E53
:104070003C3FC22F3D3F6C3E3E3FC74B3F3F2A5720
:10408000403F9560413F0A68423F2F6E433FB47105
:10409000443FEB73453F8273463FC971473F1A6EF9
:1040A000483FCB67493F2D604A5C185E4B3F0A4B47
:1040B0004C3FDE3C4D3F622D4E3FEF1B4F3FDD0737
:1040C000503F7CF2503F7BDA513F83C0523F94A473
:1040D000533FAD86543FCF66553FFA44563F862046
:1040E000573FC2FA573F5FD2583F05A8593F0B7B55
:1040F0005A3FC24C5B3FDA1B5C3FFBE85C3F24B499
:104100005D3FAF7C5E3F42435F4C18F2603FDAC9CF
:10411000603FDF89613FED47623F5C03633FD3BC93
:10412000633F5474643F3529653F1EDC653F118D44
:10413000663F643B673F19E7673F7D91683F9B3867
:10414000693F6ADE693FF1806A3F29226B3FC2C046
:104150006B3FBC5C6C3FBEF66C3F228E6D3F8E2386
:104160006E3F5BB66E3F30476F3F67D56F3FA661CE
:10417000703F46EB703F4772713F51F7713F637A72
:10418000723F2FFA723FAB78733FE0F3733F1E6DBF
:10419000743FBDE3743F6458753F6DCA753F7E3A06
:1041A000763F48A7763F1B12773FF67A773F33E199
:1041B000773FD044783FCEA5783FD504793F3D6125
:1041C000793F06BB793FD7127A3F0A687A3F9DBA9A
:1041D0007A3F910A7B3F8E587B3FECA37B3F52EDA9
:1041E0007B3F72337C3F9A777C3F24B97C3FB6F8A3
:1041F0007C3F01357D3F546F7D3F09A77DD4183E3C
:104200007D3F3D0F7E3FBC3F7E3F9C6D7E3FDD98F6
:104210007E3F27C27E3F29E87E3F350C7F3F492EF7
:104220007F3F164D7F3FEC697F3F7B837F3F139B32
:104230007F3FB4B07F3F0DC37F3F6FD37F9020138C
:104240007F3F57EC7F3FDCF47F3FC2FA7F3FB0FEF9
:104250007F3F180B803FCDCC4C3D6F12833B04C297
:104260003A0918180A13CC181184A24A04100C0138
:10427000020304060708091A03531254124D12339D
:104280000221321395130C1C08AF1A040A11A12441
:104290005133C201120813DC3B3308121AEE083204
:1042A0004313E5351408AD341B08CD081AE1041397
:1042B000D1331B0889101A79041A31041A25041AFB
:1042C000590441324013313C2A08C51A35083226B8
:1042D0001A5B0829BA137C0633201A1A046729745A
:1042E0001A8D4C0916A41AA51C412992012C000014
:04000005080000ED02
:00000001FF
